:100000000C9463000C948B000C948B000C94B5033F
:100010000C94CC030C94CC030C948B000C948B00AC
:100020000C948B000C948B000C948B000C948B0024
:100030000C948B000C948E030C948B000C948B000E
:100040000C9457020C948B000C945C030C943603B4
:100050000C948B000C948B000C948B000C948B00F4
:100060000C948B000C948B000000000024002700EF
:100070002A0000000008000201000003040700003D
:1000800000000000000000000000230026002900FE
:1000900000000000250028002B00040404040404D0
:1000A0000404020202020202030303030303010227
:1000B00004081020408001020408102001020408F6
:1000C0001020650C490C11241FBECFEFD8E0DEBF15
:1000D000CDBF22E0A0E4B1E001C01D92A937B20774
:1000E000E1F711E0A0E0B1E0E2EFFFE102C005902E
:1000F0000D92A034B107D9F710E0C2E6D0E004C0F9
:100100002197FE010E94E10FC136D107C9F70E9475
:10011000BF070C94EC0F0C940000CF92DF92EF928B
:10012000FF920F931F93CF93DF936C017A018B01A2
:10013000C0E0D0E0CE15DF0581F0D8016D918D01D2
:10014000D601ED91FC910190F081E02DC601099559
:10015000892B11F02196EECF7E01C701DF91CF915F
:100160001F910F91FF90EF90DF90CF900895FC01C9
:10017000538D448D252F30E0842F90E0821B930B0C
:10018000541710F0CF96089501970895FC01918DB2
:10019000828D981761F0828DDF01A80FB11D5D96E9
:1001A0008C91928D9F5F9F73928F90E008958FEF57
:1001B0009FEF0895FC01918D828D981731F0828D0B
:1001C000E80FF11D858D90E008958FEF9FEF089562
:1001D000FC01918D228D892F90E0805C9F4F821BC6
:1001E00091098F739927089585EB91E00E94E800AB
:1001F00021E0892B09F420E0822F0895FC01848DF1
:10020000DF01A80FB11DA35ABF4F2C91848D90E040
:1002100001968F739927848FA689B7892C93A0891B
:10022000B1898C91837080648C93938D848D9813A5
:1002300006C00288F389E02D80818F7D8083089538
:10024000EF92FF920F931F93CF93DF93EC0181E026
:10025000888F9B8D8C8D981305C0E889F9898081E2
:1002600085FD26C0F62E0B8D10E00F5F1F4F0F731C
:100270001127E02E8C8DE8120CC00FB607FCFACFC8
:10028000E889F989808185FFF5CFCE010E94FE00C3
:10029000F1CF8B8DFE01E80FF11DE35AFF4FF08285
:1002A0009FB7F8940B8FEA89FB89808180620AC02E
:1002B0009FB7F894EE89FF896083E889F989808186
:1002C0008370806480839FBF81E090E0DF91CF9155
:1002D0001F910F91FF90EF900895CF93DF93EC0162
:1002E000888D8823C9F0EA89FB89808185FD05C056
:1002F000A889B9898C9186FD0FC00FB607FCF5CF90
:10030000808185FFF2CFA889B9898C9185FFEDCFD7
:10031000CE010E94FE00E7CFDF91CF91089580E0EB
:1003200090E0892B29F00E94F40081110C940000C8
:10033000089520918301309184012817390771F4C1
:100340009091810180918201981741F0E0918101A3
:10035000F0E0E05CFE4F808190E008958FEF9FEF2A
:10036000089508951F93CF93DF93DC015C968D91E0
:100370009C915D97009739F421E030E013963C930F
:100380002E9312973BC05196ED91FC915297509647
:100390002C915097322F30951FB75E964C915E97F7
:1003A000742F727041FD6095F8944081772311F0AD
:1003B000422B01C043234083EC012197F1F748E031
:1003C000508160FF02C0522B01C053235083EC01C7
:1003D0002197F1F76695415099F78081772319F0BD
:1003E0008323808302C0282B20831FBF5C968D91BE
:1003F0009C915D970197F1F781E090E0DF91CF91BB
:100400001F910895209183013091840128173907A5
:1004100071F4809182012091810190E0805C9F4F76
:10042000821B910960E470E00E94970F089580E0BC
:1004300090E00895209183013091840128173907B5
:10044000B9F49091810180918201981789F0E0912F
:100450008101F0E0E05CFE4F80812091810130E07D
:100460002F5F3F4F2F7333272093810190E0089532
:100470008FEF9FEF0895089580E090E00895CF9367
:1004800080919E0190919F011816190664F40E94B4
:10049000B307C09180016C2F84E00E94CB0661E01D
:1004A0006C2760938001CF9108950E94E70F1F92FF
:1004B0000F920FB60F9211242F933F938F939F9318
:1004C000AF93BF938091AD019091AE01A091AF0128
:1004D000B091B0013091AC0123E0230F2D3720F40F
:1004E0000196A11DB11D05C026E8230F0296A11D8E
:1004F000B11D2093AC018093AD019093AE01A09308
:10050000AF01B093B0018091A8019091A901A09191
:10051000AA01B091AB010196A11DB11D8093A80164
:100520009093A901A093AA01B093AB01BF91AF91A1
:100530009F918F913F912F910F900FBE0F901F9021
:1005400018950F931F93CF93DF93EC010E94B3078D
:10055000688779878A879B87E881F9810484F58594
:10056000E02DCE01099597FF17C00E94B3070885BB
:1005700019852A853B85DC01CB01801B910BA20BE1
:10058000B30B0C811D812E813F8180179107A2073B
:10059000B30710F38FEF9FEFDF91CF911F910F9172
:1005A0000895DC01ED91FC910190F081E02D09941A
:1005B0006115710579F0FB0101900020E9F7319791
:1005C000AF01461B570BDC01ED91FC910280F381DA
:1005D000E02D099480E090E008958F929F92AF9271
:1005E000BF92EF92FF920F931F93CF93DF93CDB7FC
:1005F000DEB7A1970FB6F894DEBF0FBECDBF7C016A
:10060000FA01CB0119A2223008F42AE08E010F5D15
:100610001F4F822E912CA12CB12CBF01A50194015A
:100620000E94AB0FF901CA01015011096A3014F49C
:10063000605D01C0695CD8016C93232B242B252BB2
:1006400061F7B801C7010E94D802A1960FB6F894CD
:10065000DEBF0FBECDBFDF91CF911F910F91FF90F5
:10066000EF90BF90AF909F908F9008951F920F9240
:100670000FB60F9211242F933F934F935F936F9375
:100680007F938F939F93AF93BF93EF93FF9385EBEC
:1006900091E00E94FE00FF91EF91BF91AF919F9179
:1006A0008F917F916F915F914F913F912F910F901B
:1006B0000FBE0F901F9018951F920F920FB60F92BA
:1006C00011242F938F939F93EF93FF93E091C50194
:1006D000F091C6018081E091CB01F091CC0182FDC7
:1006E00012C090818091CE018F5F8F732091CF01D6
:1006F000821751F0E091CE01F0E0EB54FE4F958F60
:100700008093CE0101C08081FF91EF919F918F91E5
:100710002F910F900FBE0F901F9018951F920F9260
:100720000FB60F9211242F933F934F935F936F93C4
:100730007F938F939F93AF93BF93EF93FF93E0913A
:100740008501F09186010995FF91EF91BF91AF91DD
:100750009F918F917F916F915F914F913F912F91D9
:100760000F900FBE0F901F9018951F920F920FB60B
:100770000F9211248F939F938091960190919701EE
:10078000019690939701809396019F918F910F907E
:100790000FBE0F901F9018951F920F920FB60F92D9
:1007A00011242F933F934F935F936F937F938F9376
:1007B0009F93AF93BF93EF93FF93E0918301F091E9
:1007C0008401309709F451C0968DA685B78585853B
:1007D00091FF04C09C91892329F447C09C918923EF
:1007E00009F043C0A389B4899C91858980958923A8
:1007F0008C93868997890197F1F7608D718DA68515
:10080000B785558538E020E0CB010197F1F7822FBD
:1008100090E095958795282F4C91452309F0206805
:10082000315091F7868D81FD20958091820190E075
:1008300001968F73992730918101381749F0A09163
:100840008201B0E0A05CBE4F2C938093820103C074
:10085000868D8160868F828D938D0197F1F7A389B4
:10086000B4899C918589892B8C93FF91EF91BF91DD
:10087000AF919F918F917F916F915F914F913F9138
:100880002F910F900FBE0F901F9018951F93CF932D
:10089000DF93EC01162FCE010E94A10297FD16C036
:1008A0008D32910599F09C01205331092A30310590
:1008B00068F0112319F08E32910541F0E881F98139
:1008C0000284F385E02DCE010995E5CFDF91CF912C
:1008D0001F910895FF920F931F93CF93DF9301EB26
:1008E00011E0C4E0D0E0F801F1908F01CE010E9448
:1008F000480EF81621F06F2DCE010E94500E219661
:10090000C830D10581F781EB91E0DF91CF911F9144
:100910000F91FF900895CF92DF92EF92FF921F9375
:10092000CF93DF9392EF980F8E3010F4182F01C001
:10093000192F1770C0E1D0E0C12CD12C7601809125
:10094000000120E4829FC0011124812B80937C0050
:1009500080917A00806480937A0080917A0086FD8D
:10096000FCCF609178008091790070E0782B072EA1
:10097000000C880B990B0E942B0D9B01AC01C70149
:10098000B6010E94790E6B017C012197C1F620E02F
:1009900030E040E85DE30E948A0DDF91CF911F9126
:1009A000FF90EF90DF90CF9008954F925F926F92FB
:1009B0007F928F929F92AF92BF92CF92DF92EF92EF
:1009C000FF921F93CF93DF93EC016A017B019A01A1
:1009D000AB01C701B6010E94920F882319F063E3AF
:1009E00071E01AC046015701E894B7F82FEF3FEFC6
:1009F0004FE75FE7C501B4010E94920F811111C05A
:100A00002FEF3FEF4FE75FE7C501B4010E94240DD0
:100A100018163CF467E371E0CE010E94D8027C0115
:100A20007AC02FEF3FEF4FE75FE4C701B6010E94A6
:100A30008D0F18161CF46BE371E0EECF2FEF3FEF34
:100A40004FE75FECC701B6010E94240D87FDF3CF8D
:100A500020E030E0A901C701B6010E94240D87FF04
:100A60000AC06DE2CE010E94D1025C01F7FAF09457
:100A7000F7F8F09402C0A12CB12C2AE037ED43EA3C
:100A80005BE3C701B6010E94790E2B013C010E9475
:100A90005E0F6B017C010E94290D9B01AC01C3011B
:100AA000B2010E94780E2B013C012AE0B701A60199
:100AB000CE010E94ED027C01EA0CFB1C6EE2CE012D
:100AC0000E94D102E80EF91E13E0115021F120E03E
:100AD00030E040E251E4C301B2010E948A0D2B01D3
:100AE0003C010E945E0F4B01A12CB12C2AE0B50104
:100AF000A401CE010E94ED02E80EF91EC501B40169
:100B00000E94290D9B01AC01C301B2010E94780E25
:100B10002B013C01DACF60E371E0CE010E94D802E4
:100B20008E0D9F1DDF91CF911F91FF90EF90DF9071
:100B3000CF90BF90AF909F908F907F906F905F907D
:100B40004F9008958F929F92AF92BF92CF92DF9273
:100B5000EF92FF920F931F93CF93DF93EC0161E02D
:100B60000E944604FC0197FD6DC0812C912C80E809
:100B7000A82E8FE3B82EC12CD12C760110E000E016
:100B8000E130F10569F1ED32F10539F1EE32F105AF
:100B900031F1CF01C0970A9718F5AAE0B0E0A7019C
:100BA00096010E945E0E6F01FF0FEE08FF08C60E51
:100BB000D71EE81EF91E80E3C81AD108E108F10823
:100BC000112371F02DEC3CEC4CEC5DE3C501B4015C
:100BD0000E948A0D4B015C0103C001E001C011E0DD
:100BE000E881F9810284F385E02DCE010995CE01DB
:100BF0000E94A102FC01C0970A9710F2EE32F105A3
:100C000019F4111123C0BCCFE130F10509F4B8CFBC
:100C1000002341F0F094E094D094C094C11CD11C06
:100C2000E11CF11C112349F0C701B6010E942B0DF4
:100C3000A50194010E948A0D0CC0C701B6010E9453
:100C40002B0D07C060E070E0CB0103C00111E2CFC3
:100C5000EBCFDF91CF911F910F91FF90EF90DF903D
:100C6000CF90BF90AF909F908F900895CF92DF92DA
:100C7000EF92FF920F931F93CF93DF938C016B0141
:100C8000770FEE08FF08F7FE12C06DE20E94D10256
:100C9000EC0144275527BA014C195D096E097F09FB
:100CA0002AE0C8010E94ED02C80FD91F06C02AE041
:100CB000B701A6010E94ED02EC0160E371E0C801FA
:100CC0000E94D8028C0F9D1FDF91CF911F910F9131
:100CD000FF90EF90DF90CF900895CF92DF92EF9248
:100CE000FF921F93CF93DF93EC0160E00E944604D4
:100CF000FC0197FD42C0C12CD12C760110E0E130FF
:100D0000F10501F1ED32F105E1F0CF01C0970A974D
:100D1000C8F4AAE0B0E0A70196010E945E0E6F0140
:100D2000FF0FEE08FF08DC01CB018C0D9D1DAE1DF1
:100D3000BF1D6C017D0120E3C21AD108E108F10852
:100D400001C011E0E881F9810284F385E02DCE0134
:100D50000995CE010E94A102FC01C0970A9778F282
:100D6000E130F10561F2112361F066277727CB01AD
:100D70006C197D098E099F0906C060E070E0CB0107
:100D800002C0C701B601DF91CF911F91FF90EF9094
:100D9000DF90CF90089590E0FC01EE58FF4F249132
:100DA000FC01E255FF4F3491FC01E656FF4FE49100
:100DB000EE2309F43CC0222339F1233091F038F4BA
:100DC0002130A9F0223001F584B58F7D12C0273083
:100DD00091F02830A1F02430B9F4809180008F7D0B
:100DE00003C0809180008F77809380000DC084B510
:100DF0008F7784BD09C08091B0008F7703C0809148
:100E0000B0008F7D8093B000F0E0EE0FFF1FE05741
:100E1000FF4FA591B4919FB7F894611104C08C91D4
:100E20003095382302C0EC913E2B3C939FBF089530
:100E3000CF93DF9390E0FC01E255FF4F2491FC013A
:100E4000E656FF4F8491882361F190E0880F991F47
:100E5000FC01E859FF4FC591D491FC01E057FF4FC9
:100E6000A591B491611109C09FB7F894888120952C
:100E700082238883EC912E230BC0623061F49FB7EC
:100E8000F8948881322F309583238883EC912E2B20
:100E90002C939FBF06C08FB7F894E8812E2B288330
:100EA0008FBFDF91CF9108951F93CF93DF93182FBA
:100EB000EB0161E00E941807209711F460E004C084
:100EC000CF3FD10539F461E0812FDF91CF911F91A0
:100ED0000C94CB06E12FF0E0EE58FF4FE491E330A5
:100EE000F9F048F4E130B9F0E230A1F584B5806260
:100EF00084BDC8BD34C0E730E9F0E83019F1E43012
:100F000049F580918000806280938000D0938B00AF
:100F1000C0938A0024C084B5806884BDC7BD1FC04B
:100F200080918000806880938000D0938900C09376
:100F3000880015C08091B00080688093B000C09395
:100F4000B3000DC08091B00080628093B000C09368
:100F5000B40005C0C038D1050CF0B5CFAFCFDF91DC
:100F6000CF911F9108952FB7F8946091AD017091C2
:100F7000AE018091AF019091B0012FBF0895789498
:100F800084B5826084BD84B5816084BD85B582608E
:100F900085BD85B5816085BD80916E00816080933F
:100FA0006E001092810080918100826080938100A8
:100FB00080918100816080938100809180008160B8
:100FC000809380008091B10084608093B100809113
:100FD000B00081608093B00080917A00846080933B
:100FE0007A0080917A00826080937A0080917A0002
:100FF000816080937A0080917A00806880937A0083
:101000001092C1001092000180E090E00E94480E12
:1010100081110FC001EB11E0C4E0D0E0CE010E94CD
:10102000480ED8018D938D012196C830D105B1F7B6
:1010300013C080E090E0A0E8BFE38093B1019093FB
:10104000B201A093B301B093B4010E946A0460E0BE
:1010500080E090E00E94500EF894809168008160DA
:101060008093680080916B00816080936B0078941E
:10107000E091C501F091C60182E08083E091C10159
:10108000F091C2011082E091C301F091C4018FEC94
:1010900080831092CD01E091C901F091CA0186E0F0
:1010A0008083E091C701F091C801808180618083D5
:1010B000E091C701F091C801808188608083E09150
:1010C000C701F091C801808180688083E091C701E9
:1010D000F091C80180818F7D8083109275021092FB
:1010E00074021092730210927202109271021092A6
:1010F00070028DE991E0909377028093760290914F
:101100006602963108F058C02DEB30E03093710242
:10111000209370022BE931E0309373022093720226
:101120002CE231E030937502209374024091680004
:10113000983058F031E09E3008F430E021E0822F02
:1011400001C0880F3A95EAF701C084E0842B8093B0
:101150006800983038F09E3040F0963148F020E03A
:1011600030E008C02DE630E005C02BE630E002C0DC
:101170002CE630E030936E0220936D02983030F40C
:1011800081E001C0880F9A95EAF70EC0292F30E060
:101190009E3018F42850310902C02E50310981E0E8
:1011A00001C0880F2A95EAF780936F02809176023A
:1011B000909177020197F1F78091740290917502F6
:1011C000892B49F1E0918301F0918401B2E0EA3585
:1011D000FB0709F1309739F0A389B4899C9185897F
:1011E000809589238C93809178028E7F80937802FA
:1011F00010928201109281018AE592E0909384011D
:1012000080938301E0916D02F0916E029081809154
:101210006F02892B808365E271E085EB91E00E948B
:10122000D80260E371E085EB91E00E94D80265E2AC
:1012300071E08AE592E00E94D80260E371E08AE5FD
:1012400092E00E94D80260E088E00E94180761E006
:1012500086E00E94180761E084E00E94180761E0C0
:1012600085E00E94180761E08DE00E94180780E188
:10127000809381001092800083E08093890184E252
:1012800094EF9093880180938701909387008093D7
:10129000860083E1809381008FE392E09093860142
:1012A0008093850181E080936F00CFEFD0E011E063
:1012B00022242A94322C02E085E190E00E948B04E3
:1012C0002B013C01C0905202D0905302E090540296
:1012D000F0905502A701960160E070E080E89FE37E
:1012E0000E94780E20915602309157024091580288
:1012F000509159020E948A0D4B015C01A301920199
:10130000C701B6010E948A0D9B01AC01C501B40161
:101310000E94790E60935602709357028093580290
:10132000909359026093A4017093A5018093A60144
:101330009093A7010E94B307C090A001D090A10193
:10134000E090A201F090A301AB01BC014C195D0932
:101350006E097F0980919E0190919F01FE01E81B1B
:10136000F90BCF01880F991F880F991F092E000CC8
:10137000AA0BBB0B84179507A607B70798F40E9422
:10138000B3076093A0017093A1018093A201909391
:10139000A301F0909D016F2D8DE00E94CB06F126F8
:1013A000F0929D0180919C0181111BC084E190E02D
:1013B0000E948B0420E030E040E85EE30E948A0D4A
:1013C0000E94570F6B017C0170939F0160939E01F7
:1013D00086E00E945407BE016C197D0985E00E94D9
:1013E000540785EB91E00E94E800892B09F450C076
:1013F00085EB91E00E94C600823519F410929C01A1
:1014000047C0833581F510939C0185EB91E00E94E4
:101410006D066B017C0170939F0160939E0186E0D5
:101420000E945407BE016C197D0985E00E94540793
:101430006EE385EB91E00E94D10260919E01709174
:101440009F0185EB91E00E9436066EE38AE592E00B
:101450000E94D10260919E0170919F018AE592E005
:101460000E94360615C0833479F485EB91E00E9422
:10147000A2056093B1017093B2018093B301909380
:10148000B4010E946A0404C085EB91E00E94C6008A
:101490008AE592E00E940202892B09F458C08AE58D
:1014A00092E00E941A02823519F410929C014FC0FA
:1014B0008335C1F510939C018AE592E00E946D0688
:1014C0006B017C0170939F0160939E0186E00E94F6
:1014D0005407B60185E00E945407B60186E00E94D9
:1014E0005407BE016C197D0985E00E9454076EE324
:1014F00085EB91E00E94D10260919E0170919F0165
:1015000085EB91E00E9436066EE38AE592E00E9448
:10151000D10260919E0170919F018AE592E00E9444
:10152000360615C0833479F48AE592E00E94A2055C
:101530006093B1017093B2018093B3019093B401B1
:101540000E946A0404C08AE592E00E941A020E9486
:10155000B307C0909801D0909901E0909A01F09063
:101560009B01DC01CB018C199D09AE09BF09893EA5
:101570009340A105B10508F489C16091960170916D
:10158000970177FF02C06F5F7F4F75956795072EB4
:10159000000C880B990B0E942B0D4B015C010E94E3
:1015A000B3076C197D098E099F090E94290D20E05F
:1015B00030E04AE754E40E94E50E9B01AC01C5010E
:1015C000B4010E94E50E60939201709393018093A1
:1015D00094019093950110929701109296010E94A8
:1015E000B307609398017093990180939A01909347
:1015F0009B0183E190E00E948B0460938E017093C5
:101600008F01809390019093910160919E01709160
:101610009F016115710589F480E291EAA7E0B0E0CD
:1016200080938A0190938B01A0938C01B0938D01DC
:1016300060E084E00E94CB061EC0072E000C880BE1
:10164000990B0E942B0D9B01AC0160E074E284E7D2
:1016500099E40E94E50E20E030E040E05FE30E9464
:101660008A0D0E945E0F60938A0170938B018093B4
:101670008C0190938D0180918A0190918B01A091B2
:101680008C01B0918D0163E0880F991FAA1FBB1FC9
:101690006A95D1F70097E1E0AE07B10518F4109311
:1016A00089010EC00097F8E0AF07B10570F4009310
:1016B000890153E0B695A795979587955A95D1F7E7
:1016C000909388018093870134C0009720E4A2079B
:1016D000B10558F433E03093890146E0B695A795FB
:1016E000979587954A95D1F7EBCF0097A105E1E053
:1016F000BE0740F4F4E0F0938901892F9A2FAB2FB5
:10170000BB27DECF0097A10524E0B20758F425E0FF
:10171000209389012AE0B695A795979587952A95F4
:10172000D1F7CECF85E08093890130928801209255
:101730008701809187019091880190938700809321
:1017400086008091890180618093810063E585EB4B
:1017500091E00E94D1024091A4015091A5016091B5
:10176000A6017091A70185EB91E00E94D50469E480
:1017700085EB91E00E94D1022091B1013091B2013C
:101780004091B3015091B4016091A4017091A50101
:101790008091A6019091A7010E948A0DAB01BC0126
:1017A00085EB91E00E94D50466E485EB91E00E9410
:1017B000D1024091920150919301609194017091F6
:1017C000950185EB91E00E94D50462E485EB91E000
:1017D0000E94D10240918E0150918F016091900141
:1017E0007091910185EB91E00E94D50463E58AE553
:1017F00092E00E94D1024091A4015091A501609114
:10180000A6017091A7018AE592E00E94D50469E4DF
:101810008AE592E00E94D1022091B1013091B2019B
:101820004091B3015091B4016091A4017091A50160
:101830008091A6019091A7010E948A0DAB01BC0185
:101840008AE592E00E94D50466E48AE592E00E946F
:10185000D102409192015091930160919401709155
:1018600095018AE592E00E94D50462E48AE592E05F
:101870000E94D10240918E0150918F0160919001A0
:10188000709191018AE592E00E94D5040E948F0137
:1018900013CD87E191E090935B0280935A0280918F
:1018A0008301909184018A55924071F4E0916D0218
:1018B000F0916E02908180916F02809589238083E0
:1018C000109284011092830108951092B801109231
:1018D000B70188EE93E0A0E0B0E08093B901909367
:1018E000BA01A093BB01B093BC0125E031E0309375
:1018F000B6012093B50125EC30E03093C20120936E
:10190000C10124EC30E03093C4012093C30120ECEA
:1019100030E03093C6012093C50121EC30E03093D4
:10192000C8012093C70122EC30E03093CA01209314
:10193000C90126EC30E03093CC012093CB0110920A
:10194000CE011092CF011092D0011092D1011092CD
:101950005D0210925C0280935E0290935F02A093FE
:101960006002B093610287E191E090935B02809303
:101970005A02109271021092700210927302109229
:1019800072021092750210927402109277021092F5
:101990007602609178026E7F6D7F60937802669523
:1019A000617081E0682783E00E94CB0661E083E0FC
:1019B0000E941807E1EBF0E0E491E0936A02EDE9A0
:1019C000F0E0E491F0E0EE0FFF1FE057FF4F85914C
:1019D000949190936C0280936B0260E082E00E948D
:1019E00018078091780281FD04C061E082E00E94C6
:1019F000CB0682E080936602E0EBF0E0E491E093B6
:101A00006702ECE9F0E0E491F0E0EE0FFF1FEA5727
:101A1000FF4F8591949190936902809368028AE0C8
:101A200097EDA3E2BEE38093520290935302A093FA
:101A30005402B0935502109256021092570210921F
:101A400058021092590208950E94660D08F481E030
:101A50000895E89409C097FB3EF4909580957095A1
:101A600061957F4F8F4F9F4F9923A9F0F92F96E9EA
:101A7000BB279395F695879577956795B795F1115F
:101A8000F8CFFAF4BB0F11F460FF1BC06F5F7F4FFC
:101A90008F4F9F4F16C0882311F096E911C077230E
:101AA00021F09EE8872F762F05C0662371F096E817
:101AB000862F70E060E02AF09A95660F771F881FE6
:101AC000DAF7880F9695879597F90895990F00088A
:101AD000550FAA0BE0E8FEEF16161706E807F90700
:101AE000C0F012161306E407F50798F0621B730B9B
:101AF000840B950B39F40A2661F0232B242B252B1C
:101B000021F408950A2609F4A140A6958FEF811DBE
:101B1000811D08950E949D0D0C940E0E0E94000ED2
:101B200038F00E94070E20F0952311F00C94F70D69
:101B30000C94FD0D11240C94420E0E941F0E70F3A4
:101B4000959FC1F3950F50E0551F629FF001729F62
:101B5000BB27F00DB11D639FAA27F00DB11DAA1F71
:101B6000649F6627B00DA11D661F829F2227B00DBE
:101B7000A11D621F739FB00DA11D621F839FA00D49
:101B8000611D221F749F3327A00D611D231F849F99
:101B9000600D211D822F762F6A2F11249F575040F0
:101BA0009AF0F1F088234AF0EE0FFF1FBB1F661F6B
:101BB000771F881F91505040A9F79E3F510580F034
:101BC0000C94F70D0C94420E5F3FE4F3983ED4F36F
:101BD000869577956795B795F795E7959F5FC1F7D8
:101BE000FE2B880F911D9695879597F9089597F983
:101BF0009F6780E870E060E008959FEF80EC0895B3
:101C000000240A94161617061806090608950024DB
:101C10000A9412161306140605060895092E039455
:101C2000000C11F4882352F0BB0F40F4BF2B11F4C9
:101C300060FF04C06F5F7F4F8F4F9F4F089557FD28
:101C40009058440F551F59F05F3F71F04795880F2A
:101C500097FB991F61F09F3F79F0879508951216C1
:101C600013061406551FF2CF4695F1DF08C016166D
:101C700017061806991FF1CF86957105610508941E
:101C80000895E894BB2766277727CB0197F9089535
:101C9000F999FECF92BD81BDF89A992780B5089534
:101CA000262FF999FECF1FBA92BD81BD20BD0FB678
:101CB000F894FA9AF99A0FBE019608950E94690E57
:101CC000A59F900DB49F900DA49F800D911D112490
:101CD0000895A29FB001B39FC001A39F700D811D05
:101CE0001124911DB29F700D811D1124911D089525
:101CF0005058BB27AA270E94900E0C940E0E0E94EB
:101D0000000E38F00E94070E20F039F49F3F19F4BE
:101D100026F40C94FD0D0EF4E095E7FB0C94F70D02
:101D2000E92F0E941F0E58F3BA1762077307840742
:101D3000950720F079F4A6F50C94410E0EF4E09589
:101D40000B2EBA2FA02D0B01B90190010C01CA0175
:101D5000A0011124FF27591B99F0593F50F4503E20
:101D600068F11A16F040A22F232F342F4427585F12
:101D7000F3CF469537952795A795F0405395C9F72A
:101D80007EF41F16BA0B620B730B840BBAF09150E2
:101D9000A1F0FF0FBB1F661F771F881FC2F70EC081
:101DA000BA0F621F731F841F48F487957795679554
:101DB000B795F7959E3F08F0B0CF9395880F08F040
:101DC0009927EE0F9795879508950E94F90E0C9428
:101DD0000E0E0E94070E58F00E94000E40F029F4EB
:101DE0005F3F29F00C94F70D51110C94420E0C94A6
:101DF000FD0D0E941F0E68F39923B1F3552391F353
:101E0000951B550BBB27AA2762177307840738F069
:101E10009F5F5F4F220F331F441FAA1FA9F335D0C6
:101E20000E2E3AF0E0E832D091505040E695001C7A
:101E3000CAF72BD0FE2F29D0660F771F881FBB1F34
:101E4000261737074807AB07B0E809F0BB0B802D12
:101E5000BF01FF2793585F4F3AF09E3F510578F03E
:101E60000C94F70D0C94420E5F3FE4F3983ED4F3CC
:101E7000869577956795B795F7959F5FC9F7880F12
:101E8000911D9695879597F90895E1E0660F771F64
:101E9000881FBB1F621773078407BA0720F0621BF5
:101EA000730B840BBA0BEE1F88F7E09508950E9420
:101EB0005E0F6894B1110C94420E08950E94270E93
:101EC00088F09F5798F0B92F9927B751B0F0E1F0FB
:101ED000660F771F881F991F1AF0BA95C9F714C0AB
:101EE000B13091F00E94410EB1E008950C94410E82
:101EF000672F782F8827B85F39F0B93FCCF38695E4
:101F000077956795B395D9F73EF490958095709540
:101F100061957F4F8F4F9F4F08950E94660D08F483
:101F20008FEF08950E94660D880B990B089597FB1B
:101F3000072E16F4009407D077FD09D00E94CD0F2C
:101F400007FC05D03EF4909581959F4F08957095BC
:101F500061957F4F0895A1E21A2EAA1BBB1BFD01BC
:101F60000DC0AA1FBB1FEE1FFF1FA217B307E40778
:101F7000F50720F0A21BB30BE40BF50B661F771FD0
:101F8000881F991F1A9469F76095709580959095B0
:101F90009B01AC01BD01CF010895AA1BBB1B51E100
:101FA00007C0AA1FBB1FA617B70710F0A61BB70BC9
:101FB000881F991F5A95A9F780959095BC01CD016E
:101FC0000895EE0FFF1F0590F491E02D099481E034
:101FD00090E0F8940C94EC0F10E0C2E6D0E004C05E
:101FE000FE010E94E10F2196C336D107C9F7F8948C
:021FF000FFCF21
:101FF200010000000020018D00B7006D01E800C65D
:1020020000DA0000000000B2018D003C02B10102C2
:10201200021A0299010A0A53494D554C414E540085
:102022000D0A006E616E00696E66006F76660000D2
:00000001FF
