:100000000C9463000C948B000C948B000C94E4070C
:100010000C9422080C9422080C948B000C948B00F6
:100020000C948B000C948B000C948B000C948B0024
:100030000C948B000C94FB070C948B000C948B009D
:100040000C9442070C948B000C94B2070C948C0710
:100050000C948B000C948B000C948B000C948B00F4
:100060000C948B000C948B000000000024002700EF
:100070002A0000000008000201000003040700003D
:1000800000000000000000000000230026002900FE
:1000900000000000250028002B00040404040404D0
:1000A0000404020202020202030303030303010227
:1000B00004081020408001020408102001020408F6
:1000C00010209A08500F11241FBECFEFD8E0DEBFDA
:1000D000CDBF22E0A0E5B1E001C01D92A83DB2076E
:1000E000E1F711E0A0E0B1E0E8E7F4E202C005903A
:1000F0000D92A035B107D9F710E0C2E6D0E004C0F8
:100100002197FE010E942912C136D107C9F70E942A
:10011000100A0C942F120C940000CF92DF92EF92F1
:10012000FF921F93CF93DF93C0E1D0E0C12CD12C7D
:10013000760112EF180F8091000120E4829FC00128
:100140001124812B80937C0080917A0080648093BD
:100150007A0080917A0086FDFCCF809178006091D2
:100160007900762F682F072E000C880B990B0E94C0
:10017000730F9B01AC01C701B6010E94C1106B0156
:100180007C012197C1F620E030E040E85DE30E9469
:10019000D20FDF91CF911F91FF90EF90DF90CF9022
:1001A000089590E0FC01EE58FF4F2491FC01E255C8
:1001B000FF4F3491FC01E656FF4FE491EE23C9F066
:1001C000222339F0233001F1A8F4213019F1223033
:1001D00029F1F0E0EE0FFF1FE057FF4FA591B4911A
:1001E0008FB7F894EC91611126C030953E233C9373
:1001F0008FBF08952730A9F02830C9F0243049F77F
:10020000809180008F7D03C0809180008F778093E4
:100210008000DFCF84B58F7784BDDBCF84B58F7D41
:10022000FBCF8091B0008F778093B000D2CF8091C8
:10023000B0008F7DF9CF3E2BDACFCF93DF9390E0E4
:10024000FC01E255FF4F249186569F4FFC0184919B
:100250008823D1F090E0880F991FFC01E859FF4FE7
:10026000A591B491FC01E057FF4FC591D491611164
:100270000EC09FB7F8948C91E22FE0958E238C935B
:100280002881E223E8839FBFDF91CF9108958FB744
:10029000F894EC91E22BEC938FBFF6CF1F93CF93A2
:1002A000DF93182FEB0161E00E941D01209739F4C4
:1002B00060E0812FDF91CF911F910C94D100CF3F4F
:1002C000D10511F461E0F5CFE12FF0E0EE58FF4FDA
:1002D000E491E33031F140F4E130B1F0E230E1F0AB
:1002E000C038D1057CF7E4CFE73029F1E83059F187
:1002F000E430B1F780918000806280938000D093D9
:100300008B00C0938A0004C084B5806884BDC7BDDB
:10031000DF91CF911F91089584B5806284BDC8BDDF
:10032000F7CF80918000806880938000D09389000F
:10033000C0938800EDCF8091B00080688093B000BA
:10034000C093B300E5CF8091B00080628093B0008D
:10035000C093B400DDCF8230910538F0880F991F2B
:10036000880F991F05970197F1F708952FB7F89413
:100370006091BD017091BE018091BF019091C0015B
:100380002FBF08950F931F93CF93DF93EC010E942B
:10039000B601688779878A879B87E881F981048419
:1003A000F585E02DCE01099597FF15C00E94B60195
:1003B000088519852A853B85601B710B820B930B81
:1003C0000C811D812E813F81601771078207930781
:1003D00020F38FEF9FEFDF91CF911F910F91089541
:1003E0001F93CF93DF93EC01162FCE010E94C20121
:1003F00097FD16C08D32910599F09C01205331096B
:100400002A30310568F0112319F08E32910541F040
:10041000E881F9810284F385E02DCE010995E5CFCD
:10042000DF91CF911F9108958F929F92AF92BF92CB
:10043000CF92DF92EF92FF920F931F93CF93DF93B0
:100440008C0161E00E94F001FC0160E070E0CB01F2
:10045000F7FD71C0812C912C80E8A82E8FE3B82E77
:10046000C12CD12C7601C0E0D0E0E130F10551F192
:10047000ED32F10509F43FC0EE32F105F1F1CF01A3
:10048000C0970A97F8F4AAE0B0E0A70196010E948D
:10049000A6106F01FF0FEE08FF08C60ED71EE81E5C
:1004A000F91E80E3C81AD108E108F108CC2351F005
:1004B0002DEC3CEC4CEC5DE3C501B4010E94D20F85
:1004C0004B015C01D801ED91FC910284F385E02D94
:1004D000C8010995C8010E94C201FC01C0970A9792
:1004E00020F2EE32F10559F4CC2309F4BECFCD2F22
:1004F000D1110BC018C0D1E0E5CFC1E0E3CFE130AE
:10050000F10509F4B2CFDD2341F0F094E094D094EA
:10051000C094C11CD11CE11CF11CC701B6010E9492
:10052000730FCC2341F0C701B6010E94730FA501E0
:1005300094010E94D20FDF91CF911F910F91FF90F4
:10054000EF90DF90CF90BF90AF909F908F900895E5
:10055000CF92DF92EF92FF921F93CF93DF93EC0144
:1005600060E00E94F001FC01C12CD12C760197FDC6
:1005700039C010E0E130F105D1F0ED32F105E1F1E3
:10058000CF01C0970A9798F4AAE0B0E0A7019601BE
:100590000E94A6106F01FF0FEE08FF08C60ED71EBF
:1005A000E81EF91E80E3C81AD108E108F108E881C5
:1005B000F9810284F385E02DCE010995CE010E94D8
:1005C000C201FC01C0970A97A8F2E130F10591F24F
:1005D000112341F0F094E094D094C094C11CD11C3C
:1005E000E11CF11CC701B601DF91CF911F91FF9073
:1005F000EF90DF90CF90089511E0D9CFDC01ED911D
:10060000FC910190F081E02D0994AF92BF92CF92BE
:10061000DF92EF92FF920F931F93CF93DF936C01C2
:100620007B018B01040F151FEB015E01AE18BF08A3
:10063000C017D10759F06991D601ED91FC91019055
:10064000F081E02DC6010995892B79F7C501DF916D
:10065000CF911F910F91FF90EF90DF90CF90BF90BF
:10066000AF900895FC01538D448D252F30E0842FE9
:1006700090E0821B930B541710F0CF9608950197CA
:100680000895FC01918D828D981761F0A28DAE0FB7
:10069000BF2FB11D5D968C91928D9F5F9F73928F3E
:1006A00090E008958FEF9FEF0895FC01918D828D6A
:1006B000981731F0828DE80FF11D858D90E0089537
:1006C0008FEF9FEF0895FC01918D228D892F90E08F
:1006D000805C9F4F821B91098F739927089585EC49
:1006E00091E00E94630321E0892B09F420E0822F2E
:1006F000089580E090E0892B29F00E946F0381111A
:100700000C9400000895FC01A48DA80FB92FB11D11
:10071000A35ABF4F2C91848D90E001968F73992737
:10072000848FA689B7892C93A089B1898C91837015
:1007300080648C93938D848D981306C00288F3890E
:10074000E02D80818F7D80830895EF92FF920F933B
:100750001F93CF93DF93EC0181E0888F9B8D8C8D6D
:1007600098131AC0E889F989808185FF15C09FB761
:10077000F894EE89FF896083E889F9898081837024
:10078000806480839FBF81E090E0DF91CF911F91D3
:100790000F91FF90EF900895F62E0B8D10E00F5FF4
:1007A0001F4F0F731127E02E8C8D8E110CC00FB6CA
:1007B00007FCFACFE889F989808185FFF5CFCE0162
:1007C0000E948303F1CFEB8DEC0FFD2FF11DE35A57
:1007D000FF4FF0829FB7F8940B8FEA89FB898081E5
:1007E0008062CFCFCF93DF93EC01888D8823B9F05F
:1007F000AA89BB89E889F9898C9185FD03C080812C
:1008000086FD0DC00FB607FCF7CF8C9185FFF2CFA8
:10081000808185FFEDCFCE010E948303E9CFDF9178
:10082000CF910895CF938091AE019091AF011816AA
:10083000190664F40E94B601C09190016C2F84E007
:100840000E94D10081E0C827C0939001CF91089504
:1008500020919301309194012817390771F49091F8
:10086000910180919201981741F0E0919101F0E09F
:10087000E05BFE4F808190E008958FEF9FEF089539
:100880000895EF92FF920F931F93CF93DF93DC01B4
:100890005C96ED90FC905D97E114F10479F481E0B1
:1008A00090E013969C938E93129790E080E0DF91F6
:1008B000CF911F910F91FF90EF9008955196ED9178
:1008C000FC91529750968C915097982F90950FB716
:1008D0005E962C915E97122F127021FD6095F89410
:1008E0002081112319F1282B2083E7012197F1F7AB
:1008F00028E0462F50E0308160FF1AC0382B30834B
:10090000E7012197F1F7BA0175956795215089F7AD
:10091000112381F08081892380830FBF5C968D91A4
:100920009C910197F1F781E090E0C1CF2923DCCFC2
:100930003923E5CF9081892BEFCF2091930130911E
:1009400094012817390771F4809192012091910147
:1009500090E0805C9F4F821B910960E470E00E94F0
:10096000DF11089590E080E0089520919301309187
:10097000940128173907B9F490919101809192015F
:10098000981789F0E0919101F0E0E05BFE4F8081E3
:100990002091910130E02F5F3F4F2F733327209339
:1009A000910190E008958FEF9FEF089590E080E02F
:1009B0000895DC011496ED91FC911597908118969D
:1009C0008C91892B80830895FC0161110C94D904CA
:1009D000A481B5819C91818589238C930895CF93BF
:1009E000DF93DC0170E0FB01E255FF4F8491189624
:1009F0008C931897982F909519969C9319976656F3
:100A00007F4FFB019491E92FF0E0EE0FFF1FE859B3
:100A1000FF4FC591D4911396DC93CE931297FB01AF
:100A20009491E92FF0E0EE0FFF1FE057FF4F259163
:100A3000349115963C932E931497FB016491E62F05
:100A4000F0E0EE0FFF1FEA57FF4F25913491179604
:100A50003C932E931697E8818E2B888381E0DF915B
:100A6000CF9108950F931F93CF93DF938C01D42FD1
:100A70000E94EF04C82F882321F06D2FC8010E9427
:100A8000E4048C2FDF91CF911F910F9108950C9466
:100A90003205CF93C82F8091D3028C1709F442C03E
:100AA000C81708F589EC92E00E94D90460E085EB54
:100AB00092E00E94E40460E08FEB92E00E94E40484
:100AC00080918D0290918E020E94AB0160E089ECD2
:100AD00092E00E94E4048091D3028823E1F28150E5
:100AE0008093D302D8CF89EC92E00E94D90460E0D1
:100AF00085EB92E00E94E4048FEB92E00E94D9041F
:100B000080918D0290918E020E94AB0160E089EC91
:100B100092E00E94E4048091D302843608F0BBCFB7
:100B20008F5FDECFCF910895FF920F931F93CF93E6
:100B3000DF9301EC11E0C4E0D0E0F801F1908F0107
:100B4000CE010E949010F81621F06F2DCE010E9468
:100B500098102196C830D10581F781EC91E0DF91A2
:100B6000CF911F910F91FF900895FB0101900020FC
:100B7000E9F73197AF01461B570BDC01ED91FC9172
:100B80000280F381E02D09948F929F92AF92BF92E1
:100B9000EF92FF920F931F93CF93DF93CDB7DEB702
:100BA000A1970FB6F894DEBF0FBECDBF7C01FA014E
:100BB000CB0119A2223008F42AE08E010F5D1F4FED
:100BC000822E912CB12CA12CBF01A50194010E9471
:100BD000F311F901CA016A300CF5605DD8016E931A
:100BE0008D01232B242B252B79F790E080E01097A3
:100BF00021F0BD01C7010E94B505A1960FB6F8947A
:100C0000DEBF0FBECDBFDF91CF911F910F91FF903F
:100C1000EF90BF90AF909F908F900895695CDECF6A
:100C2000CF92DF92EF92FF920F931F93CF93DF93B8
:100C30008C016B01770FEE08FF08F7FE21C06DE213
:100C40000E94FE02EC0144275527BA014C195D09A8
:100C50006E097F092AE0C8010E94C405C80FD91F88
:100C600063E371E0C8010E94B5058C0F9D1FDF9101
:100C7000CF911F910F91FF90EF90DF90CF9008954B
:100C80002AE0B701A6010E94C405EC01E9CF2F922A
:100C90003F924F925F926F927F928F929F92AF920C
:100CA000BF92CF92DF92EF92FF921F93CF93DF9389
:100CB000EC016A017B01722EAB019601CB01B601FA
:100CC0000E94DA1166E371E0811126C046015701E6
:100CD000E894B7F82FEF3FEF4FE75FE7C501B401A6
:100CE0000E94DA1181110CC02FEF3FEF4FE75FE751
:100CF000C501B4010E946C0F6AE371E0181664F03C
:100D00002FEF3FEF4FE75FE4C701B6010E94D51117
:100D10001816B4F46EE371E0CE01DF91CF911F910C
:100D2000FF90EF90DF90CF90BF90AF909F908F900B
:100D30007F906F905F904F903F902F900C94B505EF
:100D40002FEF3FEF4FE75FECC701B6010E946C0F3A
:100D500087FDE0CF20E030E0A901C701B6010E9485
:100D60006C0F312C212C87FF09C06DE2CE010E944F
:100D7000FE021C01F7FAF094F7F8F09410E060E03E
:100D800070E080E09FE3711641F020E030E040E247
:100D900051E40E942D111F5FF6CFA70196010E941A
:100DA000C1102B013C010E94A6114B015C012AE0FD
:100DB000BC01A401CE010E94C4057C01E20CF31C1D
:100DC0001123C1F1C501B4010E94710F9B01AC0157
:100DD000C301B2010E94C0104B015C016EE2CE0162
:100DE0000E94FE02E80EF91E115020F120E030E0D2
:100DF00040E251E4C501B4010E94D20F2B013C0135
:100E00000E94A6114B01B12CA12C2AE0B501A4012E
:100E1000CE010E94C405E80EF91EC501B4010E946E
:100E2000710F9B01AC01C301B2010E94C0104B01C4
:100E30005C01DACFC701DF91CF911F91FF90EF9056
:100E4000DF90CF90BF90AF909F908F907F906F90EA
:100E50005F904F903F902F9008950F931F93CF93E3
:100E6000DF93EC0122E00E9447068C0163E371E00E
:100E7000CE010E94B505800F911FDF91CF911F9188
:100E80000F9108951F920F920FB60F9211242F9376
:100E90003F938F939F93AF93BF938091BD019091A8
:100EA000BE01A091BF01B091C0013091BC0123E00F
:100EB000230F2D3758F50196A11DB11D2093BC01BC
:100EC0008093BD019093BE01A093BF01B093C00178
:100ED0008091B8019091B901A091BA01B091BB0184
:100EE0000196A11DB11D8093B8019093B901A09303
:100EF000BA01B093BB01BF91AF919F918F913F9188
:100F00002F910F900FBE0F901F90189526E8230F7A
:100F10000296A11DB11DD2CF1F920F920FB60F9254
:100F200011242F933F934F935F936F937F938F93EE
:100F30009F93AF93BF93EF93FF9385EC91E00E9453
:100F40008303FF91EF91BF91AF919F918F917F911B
:100F50006F915F914F913F912F910F900FBE0F9026
:100F60001F9018951F920F920FB60F9211242F9376
:100F70008F939F93EF93FF93E091D501F091D6016A
:100F80008081E091DB01F091DC0182FD1BC090814A
:100F90008091DE018F5F8F732091DF01821741F016
:100FA000E091DE01F0E0EB53FE4F958F8093DE0180
:100FB000FF91EF919F918F912F910F900FBE0F9006
:100FC0001F9018958081F4CF1F920F920FB60F9249
:100FD00011248F939F938091A6019091A701019670
:100FE0009093A7018093A6019F918F910F900FBEC0
:100FF0000F901F9018951F920F920FB60F92112409
:101000002F933F934F935F936F937F938F939F9310
:10101000AF93BF93EF93FF93E0919501F091960109
:101020000995FF91EF91BF91AF919F918F917F9122
:101030006F915F914F913F912F910F900FBE0F9045
:101040001F9018951F920F920FB60F9211242F9395
:101050003F934F935F936F937F938F939F93AF9340
:10106000BF93EF93FF93E0919301F0919401309738
:1010700049F0A685B7858585968D91FF14C09C9112
:101080008923A1F4FF91EF91BF91AF919F918F912F
:101090007F916F915F914F913F912F910F900FBE74
:1010A0000F901F9018959C91892361F7A389B489AB
:1010B0009C918589809589238C938689978901974E
:1010C000F1F7608D718DA685B785558538E020E0F4
:1010D000CB010197F1F7822F90E095958795282F06
:1010E0004C91452309F02068315091F7868D81FDA0
:1010F00020958091920190E001968F73992730910D
:101100009101381799F0A0919201B0E0A05BBE4F19
:101110002C9380939201828D938D0197F1F7A3898F
:10112000B4898C919589892B8C93ACCF868D816005
:10113000868FF1CF8F929F92AF92BF92CF92DF9224
:10114000EF92FF92CF93DF931092C8011092C701E4
:1011500098EEC92E93E0D92EE12CF12CC092C90152
:10116000D092CA01E092CB01F092CC0185E091E0EF
:101170009093C6018093C50185EC90E09093D201D5
:101180008093D10184EC90E09093D4018093D301BB
:1011900080EC90E09093D6018093D50181EC90E0B3
:1011A0009093D8018093D70182EC90E09093DA017C
:1011B0008093D90186EC90E09093DC018093DB0171
:1011C0001092DE011092DF011092E0011092E10115
:1011D00081E090E0A0E0B0E08093890290938A02E1
:1011E000A0938B02B0938C0280938D0290938E0219
:1011F000A0938F02B093900243E050E060E070E073
:1012000040939102509392026093930270939402E0
:101210008093950290939602A0939702B0939802C0
:101220008093990290939A02A0939B02B0939C02A0
:1012300080939D0290939E02A0939F02B093A00280
:1012400040E25EE460E070E04093A1025093A202AD
:101250006093A3027093A4028093A5029093A602C8
:10126000A093A702B093A80224E6822E912CA12C71
:10127000B12C8092A9029092AA02A092AB02B092E5
:10128000AC0282E090E0A0E0B0E08093AD029093E9
:10129000AE02A093AF02B093B00284EF91E0A0E061
:1012A000B0E08093B1029093B202A093B302B093E6
:1012B000B402C1E3D1E0D093B602C093B50240E0DE
:1012C0006EEF85EB92E00E943205D093C002C0938E
:1012D000BF0240E06EEF8FEB92E00E943205D093A8
:1012E000CA02C093C90240E06EEF89EC92E00E940E
:1012F000320589E291E09093CA028093C90210926C
:10130000D3028092D4029092D502A092D602B092DB
:10131000D70210926D0210926C02C0926E02D092AF
:101320006F02E0927002F092710287E191E0909377
:101330006B0280936A0210928102109280021092D6
:1013400083021092820210928502109284021092FF
:10135000870210928602609188026E7F6D7F609393
:1013600088026695617081E0682783E00E94D10061
:1013700061E083E00E941D01E1EBF0E0E491E09385
:101380007A02EDE9F0E0E491F0E0EE0FFF1FE057A4
:10139000FF4F8591949190937C0280937B0260E053
:1013A00082E00E941D018091880281FD04C061E0FD
:1013B00082E00E94D10082E080937602E0EBF0E0D0
:1013C000E491E0937702ECE9F0E0E491F0E0EE0FD5
:1013D000FF1FEA57FF4F8591949190937902809374
:1013E00078028AE097EDA3E2BEE3809362029093D5
:1013F0006302A0936402B093650210926602109299
:1014000067021092680210926902DF91CF91FF90FB
:10141000EF90DF90CF90BF90AF909F908F90089506
:10142000789484B5826084BD84B5816084BD85B5BF
:10143000826085BD85B5816085BD80916E008160CB
:1014400080936E0010928100809181008260809371
:101450008100809181008160809381008091800073
:101460008160809380008091B10084608093B1009E
:101470008091B00081608093B00080917A00846098
:1014800080937A0080917A00826080937A008091C4
:101490007A00816080937A0080917A0080688093DE
:1014A0007A001092C1001092000190E080E00E944A
:1014B00090108111D9C284E090E00E949010809336
:1014C000C10185E090E00E9490108093C20186E007
:1014D00090E00E9490108093C30187E090E00E940A
:1014E00090108093C401F89480916800816080938B
:1014F000680080916B00816080936B007894E0912C
:10150000D501F091D60182E08083E091D101F09184
:10151000D2011082E091D301F091D4018FEC80834D
:101520001092DD01E091D901F091DA0186E080832B
:10153000E091D701F091D801808180618083E091B2
:10154000D701F091D801808188608083E091D70134
:10155000F091D801808180688083E091D701F0917B
:10156000D80180818F7D8083109285021092840241
:1015700010928302109282021092810210928002D5
:101580008DE991E090938702809386029091760294
:10159000963108F047C02DEB30E030938102209364
:1015A00080022BE931E030938302209382022CE207
:1015B00031E030938502209384022091680084E01A
:1015C000983048F031E09E3008F430E081E001C00E
:1015D000880F3A95EAF7822B809368002DE630E079
:1015E000983050F02BE630E09E3030F02CE630E0C2
:1015F000963110F030E020E030937E0220937D029F
:10160000292F30E0983008F043C281E001C0880FF4
:101610009A95EAF780937F028091860290918702E3
:101620000197F1F78091840290918502892B49F10D
:10163000E0919301F091940122E0EA36F20709F17A
:10164000309739F0A389B4899C9185898095892345
:101650008C93809188028E7F8093880210929201F1
:10166000109291018AE692E0909394018093930105
:10167000E0917D02F0917E02808190917F02892B22
:10168000808362E471E085EC91E00E94B50563E33C
:1016900071E085EC91E00E94B50562E471E08AE6B4
:1016A00092E00E94B50563E371E08AE692E00E9451
:1016B000B50560E088E00E941D0161E086E00E94BF
:1016C0001D0161E084E00E941D0161E085E00E944F
:1016D0001D0161E08DE00E941D0180E18093810089
:1016E0001092800083E08093990184E294EF9093BC
:1016F000980180939701909387008093860083E1FF
:101700008093810082E194E090939601809395010B
:1017100081E080936F0040E069E085EB92E00E94F9
:10172000320540E06BE08FEB92E00E94320541E031
:101730006AE089EC92E00E94470560E085EB92E068
:101740000E94E40460E08FEB92E00E94E40489ECE4
:1017500092E00E94D904C4E60091990210919A0285
:1017600060E089EC92E00E94E404C8010E94AB01B1
:1017700089EC92E00E94D9048091950290919602A2
:101780000E94AB01C15041F785EB92E00E94D90461
:101790008FEB92E00E94D9041092D302CFEFD0E0F9
:1017A000332433940FEF1FEFB3E02B2E85E190E04D
:1017B0000E948D002B013C01C0906202D090630218
:1017C000E0906402F0906502A701960160E070E08D
:1017D00080E89FE30E94C01020916602309167026A
:1017E00040916802509169020E94D20F4B015C0146
:1017F000A7019601C301B2010E94D20F9B01AC0167
:10180000C501B4010E94C110609366027093670223
:1018100080936802909369026093B4017093B5015C
:101820008093B6019093B7010E94B601C090B001B9
:10183000D090B101E090B201F090B301AB01BC01D6
:101840004C195D096E097F098091AE019091AF013D
:10185000DE01A81BB90BCD01880F991F880F991FB6
:10186000092E000CAA0BBB0B84179507A607B70718
:10187000A0F40E94B6016093B0017093B10180930F
:10188000B2019093B301F090AD016F2D8DE00E94F5
:10189000D100B1E0FB26F092AD018091AC01811145
:1018A00033C084E190E00E948D0020E030E040E809
:1018B0005EE30E94D20F0E949F116B017093AF01F3
:1018C0006093AE0186E00E944E01BE016C197D0955
:1018D00085E00E944E01B601DD0C880B990B0E9439
:1018E000730F20E030E04FE753E40E942D1120E019
:1018F00030E048EC52E40E94D20F0E94A611862FDD
:10190000643610F40E94490585EC91E00E9463035F
:10191000892B49F085EC91E00E944103823509F062
:10192000C4C01092AC018AE692E00E949D04892B0B
:1019300049F08AE692E00E94B504823509F016C1AA
:101940001092AC010E94B601C090A801D090A901EC
:10195000E090AA01F090AB016C197D098E099F09F6
:10196000693E73408105910508F459C26091A60152
:101970007091A70177FF02C06F5F7F4F75956795E4
:10198000072E000C880B990B0E94730F4B015C0112
:101990000E94B6016C197D098E099F090E94710F82
:1019A00020E030E04AE754E40E942D119B01AC0195
:1019B000C501B4010E942D116093A2017093A3018F
:1019C0008093A4019093A5011092A7011092A60103
:1019D0000E94B6016093A8017093A9018093AA01A7
:1019E0009093AB0183E190E00E948D0060939E0193
:1019F00070939F018093A0019093A1016091AE012B
:101A00007091AF016115710509F0F7C080E291EAAC
:101A1000A7E0B0E080939A0190939B01A0939C0172
:101A2000B0939D0160E084E00E94D10040919A0152
:101A300050919B0160919C0170919D01DB01CA0155
:101A4000E3E0880F991FAA1FBB1FEA95D1F7009703
:101A500021E0A207B10508F0EFC030929901909300
:101A6000980180939701F6C080E090E0A0E8BFE382
:101A70008093C1019093C201A093C301B093C401AC
:101A80000E94940560E090E080E00E9498102BCDC9
:101A90009E3040F42850310981E001C0880F2A951A
:101AA000EAF7B8CD2E503109F7CF833509F048C099
:101AB0003092AC0185EC91E00E94A8026B0170931A
:101AC000AF016093AE0186E00E944E01BE016C1929
:101AD0007D0985E00E944E01B601DD0C880B990B53
:101AE0000E94730F20E030E04FE753E40E942D1175
:101AF00020E030E048EC52E40E94D20F0E94A61190
:101B0000862F643610F40E9449056EE385EC91E05F
:101B10000E94FE026091AE017091AF0185EC91E0F0
:101B20000E9410066EE38AE692E00E94FE02609137
:101B3000AE017091AF018AE692E00E941006F3CEEA
:101B4000833479F485EC91E00E9414026093C10122
:101B50007093C2018093C3019093C4010E949405C5
:101B6000E2CE85EC91E00E944103DDCE833579F52C
:101B70003092AC018AE692E00E94A8026B01709359
:101B8000AF016093AE0186E00E944E01BE016C1968
:101B90007D0985E00E944E016EE385EC91E00E9494
:101BA000FE026091AE017091AF0185EC91E00E9460
:101BB00010066EE38AE692E00E94FE026091AE019A
:101BC0007091AF018AE692E00E941006BBCE83348A
:101BD00079F48AE692E00E9414026093C101709346
:101BE000C2018093C3019093C4010E949405AACEC0
:101BF0008AE692E00E94B504A5CE072E000C880B61
:101C0000990B0E94730F9B01AC0160E074E284E7C2
:101C100099E40E942D1120E030E040E05FE30E9453
:101C2000D20F0E94A61160939A0170939B0180933A
:101C30009C0190939D01FACE009738E0A307B1056F
:101C400008F0FAC082E0809399017F715093980167
:101C5000409397018091970190919801909387000C
:101C6000809386008091990180618093810063E573
:101C700085EC91E00E94FE024091B4015091B501C3
:101C80006091B6017091B70185EC91E00E942D073B
:101C900069E485EC91E00E94FE022091C10130913F
:101CA000C2014091C3015091C4016091B40170918F
:101CB000B5018091B6019091B7010E94D20FAB019E
:101CC000BC0185EC91E00E942D0766E485EC91E073
:101CD0000E94FE024091A2015091A3016091A401D3
:101CE0007091A50185EC91E00E942D0762E485ECDE
:101CF00091E00E94FE0240919E0150919F016091EF
:101D0000A0017091A10185EC91E00E942D076DE486
:101D100071E085EC91E00E94B505A091D30220917D
:101D2000D4023091D5024091D6025091D702B0E052
:101D30000E94A6100E94710FAB01BC0122E085EC4D
:101D400091E00E94470663E58AE692E00E94FE0267
:101D50004091B4015091B5016091B6017091B70105
:101D60008AE692E00E942D0769E48AE692E00E94EA
:101D7000FE022091C1013091C2014091C3015091F6
:101D8000C4016091B4017091B5018091B601909148
:101D9000B7010E94D20FAB01BC018AE692E00E941B
:101DA0002D0766E48AE692E00E94FE024091A201BD
:101DB0005091A3016091A4017091A5018AE692E07F
:101DC0000E942D0762E48AE692E00E94FE024091A2
:101DD0009E0150919F016091A0017091A1018AE63E
:101DE00092E00E942D076DE471E08AE692E00E9485
:101DF000B505A091D3022091D4023091D502409133
:101E0000D6025091D702B0E00E94A6100E94710F36
:101E1000AB01BC0122E08AE692E00E94470680E026
:101E200090E0892B09F4C2CC0E946F03882309F447
:101E3000BDCC0E940000B8CC009720E4A207B105F9
:101E400050F42092990146E0B695A795979587950D
:101E50004A95D1F704CE0097A10531E0B30740F4CD
:101E600024E020939901892F9A2FAB2FBB27F7CD20
:101E70000097A10534E0B30758F425E020939901B9
:101E80002AE0B695A795979587952A95D1F7E7CD3E
:101E900085E0809399011093980100939701DACE21
:101EA00087E191E090936B0280936A0280919301A5
:101EB000909194018A56924071F4E0917D02F091E4
:101EC0007E02908180917F02809589238083109289
:101ED00094011092930108950E94AE0F08F481E0DE
:101EE0000895E89409C097FB3EF49095809570950D
:101EF00061957F4F8F4F9F4F9923A9F0F92F96E956
:101F0000BB279395F695879577956795B795F111CA
:101F1000F8CFFAF4BB0F11F460FF1BC06F5F7F4F67
:101F20008F4F9F4F16C0882311F096E911C0772379
:101F300021F09EE8872F762F05C0662371F096E882
:101F4000862F70E060E02AF09A95660F771F881F51
:101F5000DAF7880F9695879597F90895990F0008F5
:101F6000550FAA0BE0E8FEEF16161706E807F9076B
:101F7000C0F012161306E407F50798F0621B730B06
:101F8000840B950B39F40A2661F0232B242B252B87
:101F900021F408950A2609F4A140A6958FEF811D2A
:101FA000811D08950E94E50F0C9456100E94481060
:101FB00038F00E944F1020F0952311F00C943F1040
:101FC0000C94451011240C948A100E94671070F331
:101FD000959FC1F3950F50E0551F629FF001729FCE
:101FE000BB27F00DB11D639FAA27F00DB11DAA1FDD
:101FF000649F6627B00DA11D661F829F2227B00D2A
:10200000A11D621F739FB00DA11D621F839FA00DB4
:10201000611D221F749F3327A00D611D231F849F04
:10202000600D211D822F762F6A2F11249F5750405B
:102030009AF0F1F088234AF0EE0FFF1FBB1F661FD6
:10204000771F881F91505040A9F79E3F510580F09F
:102050000C943F100C948A105F3FE4F3983ED4F345
:10206000869577956795B795F795E7959F5FC1F743
:10207000FE2B880F911D9695879597F9089597F9EE
:102080009F6780E870E060E008959FEF80EC08951E
:1020900000240A9416161706180609060895002447
:1020A0000A9412161306140605060895092E0394C1
:1020B000000C11F4882352F0BB0F40F4BF2B11F435
:1020C00060FF04C06F5F7F4F8F4F9F4F089557FD94
:1020D0009058440F551F59F05F3F71F04795880F96
:1020E00097FB991F61F09F3F79F08795089512162D
:1020F00013061406551FF2CF4695F1DF08C01616D9
:1021000017061806991FF1CF869571056105089489
:102110000895E894BB2766277727CB0197F90895A0
:10212000F999FECF92BD81BDF89A992780B508959F
:10213000262FF999FECF1FBA92BD81BD20BD0FB6E3
:10214000F894FA9AF99A0FBE019608950E94B11078
:10215000A59F900DB49F900DA49F800D911D1124FB
:102160000895A29FB001B39FC001A39F700D811D70
:102170001124911DB29F700D811D1124911D089590
:102180005058BB27AA270E94D8100C9456100E94C2
:10219000481038F00E944F1020F039F49F3F19F496
:1021A00026F40C9445100EF4E095E7FB0C943F10D8
:1021B000E92F0E94671058F3BA1762077307840764
:1021C000950720F079F4A6F50C9489100EF4E095AB
:1021D0000B2EBA2FA02D0B01B90190010C01CA01E1
:1021E000A0011124FF27591B99F0593F50F4503E8C
:1021F00068F11A16F040A22F232F342F4427585F7E
:10220000F3CF469537952795A795F0405395C9F795
:102210007EF41F16BA0B620B730B840BBAF091504D
:10222000A1F0FF0FBB1F661F771F881FC2F70EC0EC
:10223000BA0F621F731F841F48F4879577956795BF
:10224000B795F7959E3F08F0B0CF9395880F08F0AB
:102250009927EE0F9795879508950E9441110C9448
:1022600056100E944F1058F00E94481040F029F478
:102270005F3F29F00C943F1051110C948A100C947C
:1022800045100E94671068F39923B1F3552391F329
:10229000951B550BBB27AA2762177307840738F0D5
:1022A0009F5F5F4F220F331F441FAA1FA9F335D032
:1022B0000E2E3AF0E0E832D091505040E695001CE6
:1022C000CAF72BD0FE2F29D0660F771F881FBB1FA0
:1022D000261737074807AB07B0E809F0BB0B802D7E
:1022E000BF01FF2793585F4F3AF09E3F510578F0AA
:1022F0000C943F100C948A105F3FE4F3983ED4F3A3
:10230000869577956795B795F7959F5FC9F7880F7D
:10231000911D9695879597F90895E1E0660F771FCF
:10232000881FBB1F621773078407BA0720F0621B60
:10233000730B840BBA0BEE1F88F7E09508950E948B
:10234000A6116894B1110C948A1008950E946F1020
:1023500088F09F5798F0B92F9927B751B0F0E1F066
:10236000660F771F881F991F1AF0BA95C9F714C016
:10237000B13091F00E948910B1E008950C94891059
:10238000672F782F8827B85F39F0B93FCCF386954F
:1023900077956795B395D9F73EF4909580957095AC
:1023A00061957F4F8F4F9F4F08950E94AE0F08F4A5
:1023B0008FEF08950E94AE0F880B990B089597FB3D
:1023C000072E16F4009407D077FD09D00E9415124D
:1023D00007FC05D03EF4909581959F4F0895709528
:1023E00061957F4F0895A1E21A2EAA1BBB1BFD0128
:1023F0000DC0AA1FBB1FEE1FFF1FA217B307E407E4
:10240000F50720F0A21BB30BE40BF50B661F771F3B
:10241000881F991F1A9469F760957095809590951B
:102420009B01AC01BD01CF010895AA1BBB1B51E16B
:1024300007C0AA1FBB1FA617B70710F0A61BB70B34
:10244000881F991F5A95A9F780959095BC01CD01D9
:102450000895EE0FFF1F0590F491E02D099410E010
:10246000C2E6D0E004C0FE010E9429122196C336C4
:08247000D107C9F7F894FFCF72
:102478000100000000A50305033203F203630341D2
:102488000355030000000041040503D60440049DE1
:1024980004B504280400000000EF0447050000000C
:1024A80000EF040D0A006E616E00696E66006F76BB
:1024B80066000A0A53494D554C414E5400520000DB
:00000001FF
